:100000000C94F2000C9423010C9423010C94230112
:100010000C9423010C9423010C9423010C942301D0
:100020000C9423010C9423010C9423010C942301C0
:100030000C9423010C9423010C9423010C942301B0
:100040000C9423010C9423010C9423010C942301A0
:100050000C9423010C9423010C9423010C948C0A1E
:100060000C9423010C94CE0D0C94A40D0C9423013C
:100070000C9423010C9423010C9423010C94230170
:100080000C9423010C9423010C9423010C94230160
:100090000C9423010C9423010C9423010C94230150
:1000A0000C9423010C9423010C9423010C94230140
:1000B0000C9423010C9423010C9423010C94230130
:1000C0000C9423010C9423010C9423010C94230120
:1000D0000C9423010C9423010C9423010C94230110
:1000E0000C9423010C948F010C94770A0C945908FA
:1000F0000C94360C0C94900D0C94EE030C944C0D57
:100100000C94A80F0C945E080C94DE0C0C94230A3B
:100110000C9460080C9470080C946A100C94340BC6
:100120000C946C080C945A080C94AC0C0C94650D4F
:100130000C948B0A0C94E70B0C94070B0C94370D62
:100140000C94C50C0C94AA0C0C94F90A0C94420D56
:100150000C94570C0C941C080C9437010C945F08F9
:100160000C944E0D0C949A0D0C9485020C9427045B
:100170000C9492010C94360D0C94330C0C94300DAD
:100180000C94240D0C9462080C947B0B0C942F0C93
:100190000C94D7030C94C9010C94790D0C94330D75
:1001A0000C9438010C9465010C942C0C0C94940163
:1001B0000C94D60A0C9434080C94160C0C9425015B
:1001C0000C945C080C94380D0C946F0D0C94E50A9B
:1001D0000C94D6030C945B0D0C94860D0C94C40304
:1001E000A80F6A1011241FBECFEFD1E2DEBFCDBF32
:1001F00000E00CBF13E0A0E0B2E0E8E2F6E200E0CD
:100200000BBF02C007900D92AE31B107D9F724E0C1
:10021000AEE1B3E001C01D92AC32B207E1F710E0ED
:10022000C1EFD0E000E006C021970109802FFE0158
:100230000E94FA12C03FD10780E00807A9F70E9488
:10024000040E0C94CC100C940000FC012481358128
:10025000828193814AE0429FF001439FF00D112477
:10026000E80FF91FE60FF71F83E7808308950895CD
:10027000EF92FF920F931F93CF93DF937B01DC01EB
:100280001696CD91DC91179718960D911C911997A0
:10029000C017D10791F0EC81FD8180819181DC0153
:1002A000ED91FC910480F581E02DB7011995811144
:1002B00005C00A80DB81C02DEBCF80E0DF91CF91BC
:1002C0001F910F91FF90EF900895EF92FF920F937F
:1002D0001F93CF93DF937B01DC011696CD91DC91C8
:1002E000179718960D911C911997C017D10781F097
:1002F000EC81FD8180819181DC01ED91FC91028096
:10030000F381E02DB70119950A80DB81C02DEDCF77
:10031000DF91CF911F910F91FF90EF90089580E0B2
:1003200090E00895CB01089580E090E008951F9338
:10033000CF93DF93EC01162F8F8580FF0BC0E881F0
:10034000F9810084F185E02D20E144E060E070E077
:10035000CE011995EB85FC852D853E85812F90E09A
:10036000E217F30758F410832B853C852F5F3F4F2E
:100370003C872B87DF91CF911F910895E881F98108
:10038000028CF38DE02DBC01CE01DF91CF911F9146
:100390001994AF92BF92CF92DF92EF92FF920F9398
:1003A0001F93CF93DF9300D01F92CDB7DEB78C01A0
:1003B0005B01C12CD12C7601C216D306E406F506EA
:1003C000B4F4F50161915F01C80129833A834B833D
:1003D0005C830E94970129813A814B815C8101965F
:1003E00049F06FEFC61AD60AE60AF60AE5CFB90158
:1003F000CA0102C0B601C7010F900F900F900F9075
:10040000DF91CF911F910F91FF90EF90DF90CF90F0
:10041000BF90AF900895CF93DF93EC01E881F9810D
:1004200036970190F081E02DE80FF91F83899489B8
:10043000DC01ED91FC910484F585E02D1995019680
:1004400059F4E881F98136970190F081E02DEC0FA5
:10045000FD1F858181608583CE01DF91CF91089555
:10046000CF93DF93EC01E881F98136970190F08119
:10047000E02DE80FF91F838994890E949701019666
:1004800099F4E881F98136970190F081E02DEC0F25
:10049000FD1F8581982F926023893489232B11F0C9
:1004A000958302C083608583CE01DF91CF9108954B
:1004B00021E0FC012083FB01A081B18116978D9181
:1004C0009C91E80FF91F81899289009711F00C9493
:1004D0000B0208950F931F93CF93DF931F92CDB715
:1004E000DEB78C01BC01CE0101960E9458026AE081
:1004F000C8010E943002C8010E940B02C8010F907F
:10050000DF91CF911F910F910895FF920F931F9349
:10051000CF93DF93A0E0B0E0FAE0FF2EFA01248150
:100520003581A217B307E0F49D01220F331FEA01C2
:10053000E881F981E20FF31F0190F081E02D028143
:10054000138120813181D481F09EF001F19EF00D64
:100550001124E20FF31FE60FF71FD0831196DECFB1
:10056000DC01ED91FC910190F081E02DDF91CF91C4
:100570001F910F91FF901994AF92BF92CF92DF928B
:10058000EF92FF920F931F93CF93DF931F92CDB7FC
:10059000DEB7B62EA72E6DE273E0CE0101960E9463
:1005A0005802E0912D03F0912E0336970190F081CF
:1005B000E02DE15DFC4FC284D384E484F5844BE0FC
:1005C000C41AD108E108F108818192818E709927BF
:1005D0000497D1F41C141D041E041F04ACF481E024
:1005E000C81AD108E108F108E0912D03F0912E031B
:1005F00036970190F081E02DE35DFC4F60898DE23C
:1006000093E00E943002E6CFE0912D03F0912E039B
:1006100036970190F081E02DE35DFC4F038914894A
:10062000D8011F968C911F9780FF0BC0ED91FC9114
:100630000084F185E02D20E144E060E070E0C80135
:100640001995D801ED91FC91008CF18DE02D2BE0F6
:1006500030E040E050E062E173E0C801199520917C
:100660002D0330912E036F3F7F4F81F4F9013697B0
:100670000190F081E02DE35DFC4F8581982F926021
:1006800043895489452B09F47CC09583F901369739
:100690000190F081E02DE15DFC4F818192818E70AF
:1006A00099270297C9F0E0912D03F0912E03369718
:1006B0000190F081E02DE15DFC4F128613861486D7
:1006C00015868DE293E00E946A02EB2CFA2C6701FA
:1006D000E4E6CE0ED11C1AC01C141D041E041F0417
:1006E00014F7F1E0CF1AD108E108F108E0912D03E9
:1006F000F0912E0336970190F081E02DE35DFC4FE1
:1007000060898DE293E00E943002E6CF00E010E0C5
:10071000F701E00FF11FB0806DE273E0CE010196AA
:100720000E9458026B2D8DE293E00E9430026DE230
:1007300073E0CE0101960E94580260E28DE293E0E0
:100740000E9430020F5F1F4F0A30110509F78DE23A
:1007500093E00E946A024AE0E40EF11CEC14FD04EE
:10076000A9F68DE293E00E946A020F90DF91CF918B
:100770001F910F91FF90EF90DF90CF90BF90AF90BF
:1007800008958360858382CFFC0124813581828135
:1007900093814AE0429FF001439FF00D1124E80F3E
:1007A000F91FE60FF71F86E6808308950895FC0180
:1007B00022813381DB0112968D919C91139728172A
:1007C000390751F481E04481558114962D913C9173
:1007D00015974217530709F080E008950895EF92A6
:1007E000FF920F931F93CF93DF938C017B0186E0E1
:1007F00090E00E943611EC011982188282E090E0AC
:100800000E943611D7012D913C91FC013183208348
:100810009D838C83D801ED91FC911197D183C08386
:1008200019821882FB83EA831196DC93CE93149687
:100830008D919C911597019615969C938E93149784
:10084000DF91CF911F910F91FF90EF900895CF927C
:10085000DF92EF92FF920F931F93CF93DF931F923C
:100860001F92CDB7DEB78C01DC0151968D919C9122
:1008700052970E94CB11D8011896ED91FC911997CF
:10088000E080F180D70114968D919C911597DC0141
:100890002D913C91D80152963C932E93519768012B
:1008A000B6E0CB0ED11CD8011A962D913C911B9726
:1008B000232B59F116962D913C911797E216F306CA
:1008C00039F4118210821796FC93EE9316970FC09D
:1008D000D7014D915C91119712962D913C911397F0
:1008E000DA0113963C932E931297518340830E9412
:1008F000CB11E114F10419F0C7010E94CB11F801EA
:1009000082859385019793878287D8011696ED910A
:10091000FC9117970480F581E02DE080F18086E05E
:1009200090E00E943611FC01D70114962D913C9164
:100930001597D8011F968D919C915097820F931F08
:10094000D70112964D915C911397D8011D962D9168
:100950003C911E97240F351F42E252E051834083A1
:100960003383228395838483FA83E983BE016F5F97
:100970007F4FC6010E94EF03E981FA818281938152
:10098000D80113969C938E93129784819581159626
:100990009C938E9314970F900F90DF91CF911F919E
:1009A0000F91FF90EF90DF90CF900895CF92DF925C
:1009B000EF92FF920F931F93CF93DF93EC018B0184
:1009C0007A018A819B818617970770F59B01285FC2
:1009D0003F4F8217930740F5C880D9803B832A8315
:1009E000C901880F991F0E943611998388838C81D1
:1009F0009D81D60140E050E04817590791F0E88109
:100A0000F9819A01220F331FE20FF31F309729F06B
:100A10002D913C911197318320834F5F5F4F129648
:100A2000EBCFC6010E94CB118C819D819C01220FCE
:100A3000331F8017910778F4E881F981E20FF31FE3
:100A4000309729F0D7014D915C91518340830196F5
:100A50002E5F3F4FEECF1D830C83DF91CF911F910F
:100A60000F91FF90EF90DF90CF900895CF92DF929B
:100A7000EF92FF920F931F93CF93DF937C016B0153
:100A8000DC011296CD91DC91139714968D919C9177
:100A90001597C817D907C9F0EC81FD810190F08145
:100AA000E02DD60112960D911D912D913C91159737
:100AB0004281538164817581041715072607370722
:100AC00024F00A80DB81C02DE4CF86E090E00E9414
:100AD00036118C01FC011182108282E090E00E94AC
:100AE0003611DC01CD92DC92F801958384838881F4
:100AF000998191838083D383C283892B31F4D70179
:100B000013961C930E93129704C0E881F981138306
:100B1000028319830883F701868197810196978361
:100B20008683DF91CF911F910F91FF90EF90DF901F
:100B3000CF9008956F927F928F929F92AF92BF92C3
:100B4000CF92DF92EF92FF920F931F93CF93DF9399
:100B50008C017B013A018FB7F89480901E0390902E
:100B60001F03A0902003B09021038FBFF801C08025
:100B7000D180C6010196918380838CE090E00E9431
:100B80003611EC01D982C882A301770C660B770B72
:100B9000480D591D6A1D7B1D4A835B836C837D83D1
:100BA0008FEF9FEFDC018E839F83A887B987FB8639
:100BB000EA86BE01C8010E94360588819981DF91CD
:100BC000CF911F910F91FF90EF90DF90CF90BF904A
:100BD000AF909F908F907F906F9008950F931F9389
:100BE000CF93DF93FC01C681D781AC81BD810D908D
:100BF000BC91A02D0A80DB81C02D0C80DD81C02D31
:100C00000990D881C02D8C819D8114960D911C91E5
:100C100015972A813B8112960D90BC91A02D2A1B1D
:100C20003B0B6217730729F4801B910B4817590778
:100C300021F076876587508B4787DF91CF911F9191
:100C40000F910895CF92DF92EF92FF920F931F932F
:100C5000CF93DF93EC016B01EC80FD8086E090E0A8
:100C6000E114F10431F50E9436118C01DC011D9272
:100C70001C9282E090E00E943611F60120813181C1
:100C8000DC012D933C93F8019583848319830883B9
:100C9000EA81FB8111830083D80111961C921E9278
:100CA0001396FC93EE93129781E090E09D838C83E2
:100CB0002DC00E9436118C01FC011182108282E04D
:100CC00090E00E943611D6012D913C91FC013183B8
:100CD0002083D80115969C938E931497EA81FB810B
:100CE0008081918111969C938E931396FC93EE9341
:100CF0001297A081B18113961C930E9312971183C2
:100D00000083BFEFEB1AFB0AFD82EC82DF91CF91EB
:100D10001F910F91FF90EF90DF90CF9008956F9209
:100D20007F928F929F92AF92BF92CF92DF92EF927B
:100D3000FF920F931F93CF93DF931F921F92CDB714
:100D4000DEB77C01DC0114968D919C911597892B5F
:100D500021F015961C921E921497F70181859285B9
:100D60000E94CB11D70117960D911C911897011570
:100D7000110509F463C088E192E0F8019183808352
:100D8000C680D780A084B184CA14DB0469F0D60180
:100D90001496ED91FC911597808191810E94CB1161
:100DA000F601C280D380F0CFD80151968D919C91ED
:100DB00052970E94CB11F801828593850680F781B6
:100DC000E02D892B59F10280F381E02DD80117968F
:100DD000FC93EE9316970190F081E02D848195812C
:100DE0000E94CB11D8011696ED91FC911797808146
:100DF0009181009711F00E94CB11D8011696ED91C8
:100E0000FC911797118210821A968D919C911B97D5
:100E100001971B969C938E931A97CDCF84819581D1
:100E20000E94CB11D80116968D919C91179700972F
:100E300011F00E94CB11C8010E94CB1186E090E016
:100E40000E943611FC018EE092E09183808388E05D
:100E500090E09383828395838483D7011A96FC93D1
:100E6000EE931997FA83E98314968D919C911597C7
:100E7000BC016F5F7F4F8617970738F4AE014F5F55
:100E80005F4FC7010E94D60406C06817790718F49F
:100E9000F7017583648383E190E00E9436118C0131
:100EA00088E192E0D8018D939C935801B6E0AB0E97
:100EB000B11CF8011386128686E090E00E9436117C
:100EC000FC01118210821382128215821482D801D1
:100ED00017969C938E93169719969C938E931897BA
:100EE00086E090E00E943611FC0182E2682E82E0EA
:100EF000782E71826082CC24C394D12CD382C2829A
:100F000022E0822E912C95828482FA83E983BE01AD
:100F10006F5F7F4FC5010E94EF0386E090E00E9463
:100F20003611FC0171826082D382C282D582C48272
:100F30009A838983BE016F5F7F4FC5010E9422069D
:100F4000F80116861586D08AC786D382C28295821A
:100F50008482128A118AD70118961C930E931797D0
:100F60001A83098314968D919C911597BC016F5F2C
:100F70007F4F8617970738F4AE014F5F5F4FC70169
:100F80000E94D60406C06817790718F4F701758324
:100F900064830F900F90DF91CF911F910F91FF907D
:100FA000EF90DF90CF90BF90AF909F908F907F9009
:100FB0006F900895EF92FF920F931F93CF93DF935B
:100FC0007C01EB01AB01CB018C599F4F60E220E02B
:100FD00030E0FA01E20FF31F60832F5F3F4F2A30AA
:100FE0003105B9F7465F5F4F4817590781F700E0B1
:100FF00010E0F7018481958108171907A8F498017A
:10100000220F331FD701ED91FC91E20FF31F808176
:101010009181DC01ED91FC910280F381E02DBE0114
:1010200019950F5F1F4FE5CFCE01DF91CF911F9133
:101030000F91FF90EF900895CF93DF93C0912B0312
:10104000D0912C03E881F9810084F185E02DCE0157
:101050001995892BB9F3E881F9810284F385E02D94
:10106000CE01DF91CF9119941F93CF93DF93182F67
:10107000C0912B03D0912C038A3041F4E881F9818F
:101080000190F081E02D6DE0CE011995E881F981A4
:101090000190F081E02D612FCE01199521E030E023
:1010A000019711F420E030E0C901DF91CF911F9149
:1010B000089508950C94CB110C94CB1108950895C4
:1010C0000C94CB11DC01ED91FC913697208131819C
:1010D000820F931F0C9460080C94CB110E94CD12C8
:1010E0002F923F924F925F926F927F928F929F9238
:1010F000AF92BF92CF92DF92EF92FF920F931F9326
:10110000CF93DF9300D01F92CDB7DEB7809122033B
:10111000909123039C838B83DC011296ED90FC90CD
:101120001397F701828100811181882339F0C8016A
:101130000E948F06D70112961C927FC0E12CF12CE1
:10114000F80184819581E816F906A8F4C701880F93
:10115000991FD801ED91FC91E80FF91F80819181D1
:10116000DC01ED91FC910190F081E02D1995BFEF2C
:10117000EB1AFB0AE5CF0780F085E02D8281938191
:1011800097FD5DC1848195810A9708F058C1D80107
:101190001796ED91FC9118970680F781E02D048059
:1011A000F581E02D80819181DC01ED91FC91D801E8
:1011B00019966D917C911A970480F581E02D19950F
:1011C0008823D9F1F801E780F084B7016F5E7F4F83
:1011D000C70106960E942206D70152961C921E92C3
:1011E00051977AE0E72EF12CD80117968D919C91BA
:1011F0001897DC01ED91FC91D80119966D917C91C5
:101200001A970480F581E02D19958823B1F0F80133
:10121000C184D2840E94BD10B7010E94D212D601AF
:1012200013969C938E9312970E94BD10B7010E9453
:10123000D212F60195838483D7CFEB81FC8166813E
:1012400077810280F381E02D808191810E94DA070D
:10125000AB81BC8116960D90BC91A02DBA83A98359
:10126000EB81FC8120843184A12CB12CE12CF12C68
:10127000812C912CC4018A0D9B1DE981FA81E80F14
:10128000F91F1081F101E80FF91F8081181709F487
:1012900079C085E090E00E9436116C01DC01119666
:1012A0009C928E921396FC92EE92129714961C9337
:1012B000EB81FC81608C718C83010F5F1F4F601686
:1012C000710608F056C0268937892017310780F546
:1012D000C30109962817390758F544885588978B14
:1012E000868B880F991F0E943611AB81BC81559661
:1012F0009C938E935497D20120E030E02615370559
:10130000A1F0EB81FC8184899589F901EE0FFF1F23
:10131000E80FF91F309729F08D919C9111979183D7
:1013200080832F5F3F4F1296E9CFC2010E94CB11FD
:10133000AB81BC8158968D919C9159979C01220F4D
:10134000331F8017910780F4AB81BC815496ED91D7
:10135000FC915597E20FF31F309711F0D182C082B4
:1013600001962E5F3F4FEDCFEB81FC81118F008FF7
:1013700009C00615170530F4AB81BC8159961C9342
:101380000E935897BFEF8B1A9B0AEAE08E169104D2
:1013900009F070CFFFEFEF1AFF0A8AE0A80EB11C28
:1013A0009AE0E916F10409F063CFAB81BC81549651
:1013B0000D911C9155975896ED90FC905997EE0C15
:1013C000FF1CE00EF11EF8010E151F0539F00E5F2F
:1013D0001F4F808191810E94CB11F5CFEB81FC8161
:1013E000808D918D892B11F0118E108EAB81BC8177
:1013F00018968D919C91199716962D913C9117975F
:1014000019963C932E93189717969C938E93169744
:101410000F900F900F900F90DF91CF911F910F9130
:10142000FF90EF90DF90CF90BF90AF909F908F9004
:101430007F906F905F904F903F902F900895C801DC
:101440000E948F06A4CE0F931F93CF93DF9300913A
:10145000220310912303F801C281D38182859385F1
:1014600082309105A1F04CF4019711F5E881F981E2
:1014700040E050E06FEF7FEF17C08330910571F0CF
:101480000497B1F4E881F98141E050E00BC0E881B4
:10149000F98140E050E061E070E006C0E881F98148
:1014A0004FEF5FEF60E070E0878190850E94EE056E
:1014B000F80184859585892B11F481E08A83DF9179
:1014C000CF911F910F910895FB0120813181FC0183
:1014D00031832083FB0142815381F90136972081BA
:1014E0003181FC01E20FF31F518340830895089579
:1014F000FB0120813181FC0131832083FB0142818A
:101500005381F901369720813181FC01E20FF31FED
:1015100051834083089508951F920F920FB60F9242
:1015200011242F933F938F939F93AF93BF938091F9
:101530001E0390911F03A0912003B09121033091CD
:10154000280323E0230F2D3720F40196A11DB11DA0
:1015500005C026E8230F0296A11DB11D2093280384
:1015600080931E0390931F03A0932003B093210345
:101570008091240390912503A0912603B091270325
:101580000196A11DB11D8093240390932503A09380
:101590002603B0932703BF91AF919F918F913F9105
:1015A0002F910F900FBE0F901F901895FC01538D37
:1015B000448D252F30E0842F90E0821B930B54172D
:1015C00010F0CF96089501970895FC01918D828DBA
:1015D000981761F0828DDF01A80FB11D5D968C9187
:1015E000928D9F5F9F73928F90E008958FEF9FEF92
:1015F0000895FC01918D828D981731F0828DE80F4E
:10160000F11D858D90E008958FEF9FEF0895FC0107
:10161000918D228D892F90E0805C9F4F821B9109D4
:101620008F7399270895FC01848DDF01A80FB11DE8
:10163000A35ABF4F2C91848D90E001968F73992708
:10164000848FA689B7892C93A089B1898C918064F5
:101650008C93938D848D981306C00288F389E02DB6
:1016600080818F7D80830895EF92FF920F931F9367
:10167000CF93DF93EC0181E0888F9B8D8C8D981345
:1016800005C0E889F989808185FD24C0F62E0B8D7F
:1016900010E00F5F1F4F0F731127E02E8C8DE812A3
:1016A0000CC00FB607FCFACFE889F989808185FF65
:1016B000F5CFCE010E94130BF1CF8B8DFE01E80F09
:1016C000F11DE35AFF4FF0820B8FEA89FB8980817D
:1016D000806207C0EE89FF896083E889F98980818B
:1016E0008064808381E090E0DF91CF911F910F9122
:1016F000FF90EF900895CF93DF93EC01888D8823BE
:10170000C9F0EA89FB89808185FD05C0A889B9896E
:101710008C9186FD0FC00FB607FCF5CF808185FF49
:10172000F2CFA889B9898C9185FFEDCFCE010E94B7
:10173000130BE7CFDF91CF91089585E893E00E94E6
:10174000070B21E0892B09F420E0822F089580E027
:1017500090E0892B21F00E949D0B811125C080E033
:1017600090E0892B41F080E090E0892B21F00E94ED
:10177000000081111CC080E090E0892B41F080E0E6
:1017800090E0892B21F00E940000811113C080E0BD
:1017900090E0892BA1F080E090E0892B81F00E94FD
:1017A000000081110AC008950E940000D8CF0E9455
:1017B0000000E1CF0E940000EACF0C9400000895E1
:1017C000DC01ED91FC910190F081E02D1994CF9214
:1017D000DF92EF92FF920F931F93CF93DF936C01F1
:1017E0007A018B01C0E0D0E0CE15DF0589F0D80189
:1017F0006D918D01D601ED91FC910190F081E02D6C
:10180000C6011995892B11F47E0102C02196ECCFF7
:10181000C701DF91CF911F910F91FF90EF90DF9063
:10182000CF900895089580E090E00895CF93DF93DE
:10183000EC01E881F9810288F389E02D19958F3F49
:101840002FEF920731F02D813E812F5F3F4F3E8376
:101850002D83DF91CF9108958FEF9FEF089560E082
:1018600070E0CB01089580E090E008950F931F93FE
:10187000CF93DF938C01EB016F3F8FEF780719F463
:1018800080E090E00FC06A3031F46DE0F8018089AB
:1018900091890E94E00B6C2FF801808991890E9448
:1018A000E00BCE01DF91CF911F910F9108958F92A0
:1018B0009F92BF92CF92DF92EF92FF920F931F936E
:1018C000CF93DF9300D01F92CDB7DEB78C014B01D1
:1018D000C12CD12C7601C216D306E406F50644F5D8
:1018E000F401B1904F01FAE0BF120EC06DE0F801B3
:1018F0008089918929833A834B835C830E94E00B22
:101900005C814B813A8129816B2DF8018089918915
:1019100029833A834B835C830E94E00BFFEFCF1A4D
:10192000DF0AEF0AFF0A5C814B813A812981D3CF1C
:10193000CA01B9010F900F900F900F90DF91CF91D6
:101940001F910F91FF90EF90DF90CF90BF909F90ED
:101950008F900895CB010895CF93DF93EC01888990
:101960009989DC01ED91FC910084F185E02D1995B8
:10197000892BA9F388899989DC01ED91FC91028476
:10198000F385E02DDF91CF911994CF93DF93EC0194
:1019900088899989DC01ED91FC910084F185E02D25
:1019A0001995892BA9F388899989DC01ED91FC911E
:1019B0000484F585E02DDF91CF911994AF92BF9209
:1019C000CF92DF92EF92FF920F931F93CF93DF930B
:1019D00000D01F92CDB7DEB78C015B01C12CD12C9A
:1019E0007601F80180899189DC01ED91FC910284F6
:1019F000F385E02D29833A834B835C8319952981F4
:101A00003A814B815C818F3F71F0C216D306E406A8
:101A1000F5064CF4D5018D935D01BFEFCB1ADB0ABF
:101A2000EB0AFB0ADECFC701B6010F900F900F90B3
:101A30000F90DF91CF911F910F91FF90EF90DF906A
:101A4000CF90BF90AF900895DC0150968D919C91FE
:101A50005197DC01ED91FC910084F185E02D199402
:101A600080E090E0089580E090E008950895089562
:101A7000DC01ED91FC91369720813181820F931F1B
:101A80000C945908DC01ED91FC913697208131814D
:101A9000820F931F0C945A080C94CB112CEF32E058
:101AA000FC013183208326E033E0358B248B6CE00E
:101AB00073E00C94780ADC01ED91FC91369720815B
:101AC0003181820F931F0C944E0DCF93DF93EC0165
:101AD0000E944E0DCE01DF91CF910C94CB11DC0111
:101AE000ED91FC91369720813181820F931F0C94E8
:101AF000650D24E832E0FC01318320832EE832E0DA
:101B0000318F208F64E972E00C94640ADC01ED915E
:101B1000FC91369720813181820F931F0C94790DAF
:101B2000CF93DF93EC010E94790DCE01DF91CF912D
:101B30000C94CB11DC01ED91FC9136972081318121
:101B4000820F931F0C94900D1F920F920FB60F925D
:101B500011240BB60F922F933F934F935F936F9384
:101B60007F938F939F93AF93BF93EF93FF9385E8FA
:101B700093E00E94130BFF91EF91BF91AF919F9162
:101B80008F917F916F915F914F913F912F910F9026
:101B90000BBE0F900FBE0F901F9018951F920F92C3
:101BA0000FB60F9211240BB60F922F938F939F9322
:101BB000EF93FF93E0919503F09196038081E0917C
:101BC0009B03F0919C0382FD12C0908180919E0343
:101BD0008F5F8F7320919F03821751F0E0919E03D6
:101BE000F0E0EB57FC4F958F80939E0301C08081FE
:101BF000FF91EF919F918F912F910F900BBE0F90BE
:101C00000FBE0F901F901895789484B5826084BDA4
:101C100084B5816084BD85B5826085BD85B58160F0
:101C200085BD80916E00816080936E00109281006E
:101C30008091810082608093810080918100816029
:101C400080938100809180008160809380008091EA
:101C5000B10084608093B1008091B0008160809376
:101C6000B0008091910082608093910080919100FA
:101C700081608093910080919000816080939000BA
:101C80008091A10082608093A1008091A100816079
:101C90008093A1008091A00081608093A00080913A
:101CA00021018260809321018091210181608093D4
:101CB00021018091200181608093200180917A0030
:101CC000846080937A0080917A00826080937A00A9
:101CD00080917A00816080937A0080917A00806898
:101CE00080937A001092C1008BE190E00E9436113F
:101CF000EC011B861A8681E090E09D878C879F8788
:101D00008E87998B888B9B8B8A8B88E0C82ED12CF1
:101D1000DF8ACE8A198E188E80E190E00E943611FB
:101D20009D8B8C8B80E190E00E943611FC018BE052
:101D300090E0918380838CE090E0938382838DE0B8
:101D400090E0958384838EE090E0978386838FE094
:101D500090E09187808780E190E09387828781E19E
:101D600090E09587848782E190E097878687F98362
:101D7000E88383E090E00E9436117C018BE090E0E4
:101D80000E9436118C01DC011396DC92CE921297E0
:101D900015961C921E92149780E190E00E943611D5
:101DA000F801918380831286118610861782C801FC
:101DB0000E948F06D70111961C930E9312961C92C7
:101DC000FB82EA8282E090E00E9436117C018CE284
:101DD00092E0F70191838083FD82EC8284E690E0BB
:101DE0000E9436116C019F838E8384E690E00E94EE
:101DF00036115C0199878887B601C8010E94DA070D
:101E0000B501C8010E94DA07D701ED91FC9101905C
:101E1000F081E02DB601C701199589E090E00E949C
:101E20003611EC011F821E8286E090E00E9436117E
:101E3000FC011182108213821282158214829B830C
:101E40008A839D838C8319821882D0932A03C0933E
:101E5000290342E450E063E27AE0CE010E949A0551
:101E600044EF51E060E778E0CE010E949A05C0910E
:101E70002903D0912A038E819F81892B09F465C0A3
:101E8000EA81FB810480F581E02D008111818FB70B
:101E9000F894C0901E03D0901F03E0902003F090B0
:101EA00021038FBFF80182819381A481B581C81677
:101EB000D906EA06FB060CF448C08E819F81892B67
:101EC00001F1EA81FB810280F381E02DFB83EA834B
:101ED0000190F081E02D848195810E94CB11EA81EF
:101EE000FB8180819181009711F00E94CB11EA81E2
:101EF000FB81118210822E813F81215031093F8365
:101F00002E83F80186819781A085B1851816190660
:101F10001A061B069CF48C0D9D1DAE1DBF1D8283F1
:101F20009383A483B583B801CE010E943605D801FE
:101F30001A96ED91FC911B97199507C00284F385C1
:101F4000E02D1995C8010E94CB110E94A70B8FCFDD
:101F5000CF93DF93A5E8B3E013961C921E921297DD
:101F600048EE53E060E070E014964D935D936D93FE
:101F70007C9317978CE592E011969C938E9385EC59
:101F800090E01D969C938E931C9784EC90E01F9696
:101F90009C938E931E9780EC90E051969C938E9329
:101FA000509781EC90E053969C938E93529782ECDD
:101FB00090E055969C938E93549786EC90E05796BC
:101FC0009C938E93569759961C9259975A961C92A9
:101FD0005A975B961C925B975C961C925C97EDE21D
:101FE000F3E0C1E2D0E0D08FC78B118E128E138E3A
:101FF00046E050E060E070E0448F558F668F778F49
:1020000010A211A212A213A220E224A316A215A2CA
:1020100011A68FE293E090A787A38CEF92E09183C3
:10202000808386E093E0958B848B168215821086E0
:102030001782128611861486138616861586108AD4
:1020400017868AED92E093838283B38BA28B30E173
:10205000318BE7E5F3E0D48FC38F158E168E178E84
:1020600040A351A362A373A314A215A216A217A2A0
:1020700020A712A611A615A6128213821482158219
:102080002DE533E034A723A724E832E03183208311
:102090002EE832E0318F208F128611861486138647
:1020A00016861586108A1786128A118A148A138A50
:1020B00097838683B78BA68B88E0858BB0932C03A0
:1020C000A0932B036CE178E084E398E0DF91CF915B
:1020D0000C94CF1087E593E00E94790D8DE293E098
:1020E0000C944E0D8F929F92AF92BF92CF92DF923F
:1020F000EF92FF92CF93DF93EC01688179818A811F
:102100009B81611571058105910521F464E279EDEA
:102110008BE597E02DE133EF41E050E00E946A1239
:1021200049015A019B01AC01A7EAB1E40E9489125E
:102130006B017C01ACEEB4EFA50194010E949712F3
:10214000DC01CB018C0D9D1DAE1DBF1DB7FF03C073
:102150000197A109B04888839983AA83BB839F779D
:10216000DF91CF91FF90EF90DF90CF90BF90AF9035
:102170009F908F9008950C94721080E092E00C94E0
:102180007210A0E0B0E08093000290930102A0934F
:102190000202B09303020895F8940C9402130F9373
:1021A0001F93CF93DF93009731F46115710519F4F4
:1021B00080E090E03AC08B01EC016EE070E081E0DD
:1021C00090E00E941A11FC01892B91F380E883832F
:1021D0000115110571F01387028781E883838091CF
:1021E000220490912304892B21F4F0932304E0939B
:1021F00022042097C9F0D187C087838182608383BE
:102200008091240490912504892B71F4F093250486
:10221000E09324048091260490912704892B21F4D3
:10222000F0932704E0932604CF01DF91CF911F9113
:102230000F9108950F931F93CF93DF93869F800193
:10224000879F100D969F100D1124C8010E94361112
:10225000EC01009729F0A80160E070E00E94631291
:10226000CE01DF91CF911F910F910895CF93DF930E
:102270008230910510F482E090E0E0912A04F09120
:102280002B0420E030E0C0E0D0E0309711F1408135
:10229000518148175907C0F04817590761F48281E6
:1022A0009381209719F09B838A832BC090932B04F2
:1022B00080932A0426C02115310519F042175307CF
:1022C00018F49A01BE01DF01EF010280F381E02DD5
:1022D000DCCF2115310509F1281B390B24303105DC
:1022E00090F412968D919C9113976115710521F0D0
:1022F000FB019383828304C090932B0480932A0470
:10230000FD01329644C0FD01E20FF31F81939193CA
:10231000225031092D933C933AC0209128043091EA
:102320002904232B41F420910602309107023093B7
:1023300029042093280420910402309105022115DC
:10234000310541F42DB73EB7409108025091090282
:10235000241B350BE0912804F0912904E217F307C0
:10236000A0F42E1B3F0B2817390778F0AC014E5F05
:102370005F4F2417350748F04E0F5F1F5093290415
:10238000409328048193919302C0E0E0F0E0CF01F4
:10239000DF91CF9108950F931F93CF93DF93009711
:1023A00009F48CC0FC0132971382128200912A0436
:1023B00010912B040115110581F420813181820FC8
:1023C000931F20912804309129042817390779F5A3
:1023D000F0932904E093280471C0D80140E050E054
:1023E000AE17BF0750F412962D913C911397AD0193
:1023F0002115310509F1D901F3CF9D01DA013383AC
:10240000228360817181860F971F8217930769F479
:10241000EC0128813981260F371F2E5F3F4F318312
:1024200020838A819B8193838283452B29F4F093B7
:102430002B04E0932A0442C01396FC93EE93129768
:10244000ED01499159919E01240F351FE217F307C1
:1024500071F480819181840F951F029611969C934F
:102460008E938281938113969C938E931297E0E0D2
:10247000F0E0D80112968D919C911397009719F076
:10248000F8018C01F6CF8D919C9198012E5F3F4F02
:10249000820F931F209128043091290428173907AF
:1024A00069F4309729F410922B0410922A0402C088
:1024B000138212821093290400932804DF91CF9194
:1024C0001F910F910895DC0101C06D934150504060
:1024D000E0F70895052E97FB1EF400940E948112E8
:1024E00057FD07D00E949C1207FC03D04EF40C94B9
:1024F000811250954095309521953F4F4F4F5F4F3A
:10250000089590958095709561957F4F8F4F9F4F5F
:1025100008950E94BE12A59F900DB49F900DA49F98
:10252000800D911D11240895B7FF0C9489120E940B
:102530008912821B930B0895A1E21A2EAA1BBB1BC2
:10254000FD010DC0AA1FBB1FEE1FFF1FA217B3077F
:10255000E407F50720F0A21BB30BE40BF50B661F95
:10256000771F881F991F1A9469F760957095809559
:1025700090959B01AC01BD01CF010895A29FB001D0
:10258000B39FC001A39F700D811D1124911DB29FA7
:10259000700D811D1124911D089581E090E0F89443
:1025A0000C94021397FB072E16F4009407D077FDC6
:1025B00009D00E94E61207FC05D03EF49095819563
:1025C0009F4F0895709561957F4F0895AA1BBB1B7F
:1025D00051E107C0AA1FBB1FA617B70710F0A61B23
:1025E000B70B881F991F5A95A9F780959095BC0144
:1025F000CD010895EE0FFF1F881F8BBF0790F69146
:10260000E02D199410E0C1EFD0E000E006C0802F6B
:10261000FE010E94FA122196011DC23FD10780E0FF
:082620000807A9F7F894FFCFA9
:102628000100000000002C04800000000000D60318
:10263800C403D70300000000270465013801000027
:10264800000037012501D70300000000EE038502D2
:1026580018000000000000000000E8FFE8FF00008C
:102668000000000014000000000000000000ECFF63
:10267800ECFF00000000000000000000340BE70B36
:10268800D60A7B0B070BE50AF90A060000000000D2
:1026980059085A08FAFFFAFF0000380D420D1800D1
:1026A80000000000790D900DE8FFE8FF0000860D9E
:1026B8009A0D8402360240028E0200000000370D97
:1026C8004C0D360D330D9401300D8F01330C2F0C4A
:1026D8002C0C160CAA0CC901920102000000000083
:1026E8005E086008FEFFFEFF00005F086208000049
:1026F80000008B0A6C0800000000770A5C08360DA1
:10270800330D9401300D8F01240DDE0CC50CAC0C7B
:10271800AA0C570C360C1400000000004E0D650D75
:10272800ECFFECFF00005B0D6F0DFC024A02540247
:0E2738000603426F6172642073746174650061
:00000001FF
